{
  "contractName": "Property",
  "abi": [
    {
      "constant": true,
      "inputs": [
        {
          "name": "",
          "type": "address"
        }
      ],
      "name": "admins",
      "outputs": [
        {
          "name": "",
          "type": "bool"
        }
      ],
      "payable": false,
      "stateMutability": "view",
      "type": "function"
    },
    {
      "constant": true,
      "inputs": [],
      "name": "version",
      "outputs": [
        {
          "name": "",
          "type": "string"
        }
      ],
      "payable": false,
      "stateMutability": "view",
      "type": "function"
    },
    {
      "constant": true,
      "inputs": [
        {
          "name": "",
          "type": "uint256"
        }
      ],
      "name": "propertys",
      "outputs": [
        {
          "name": "created",
          "type": "uint256"
        },
        {
          "name": "creator",
          "type": "address"
        },
        {
          "name": "name",
          "type": "string"
        },
        {
          "name": "addr",
          "type": "string"
        },
        {
          "name": "desc",
          "type": "string"
        },
        {
          "name": "price",
          "type": "uint256"
        },
        {
          "name": "getLoc",
          "type": "string"
        },
        {
          "name": "index",
          "type": "uint256"
        }
      ],
      "payable": false,
      "stateMutability": "view",
      "type": "function"
    },
    {
      "constant": true,
      "inputs": [],
      "name": "owner",
      "outputs": [
        {
          "name": "",
          "type": "address"
        }
      ],
      "payable": false,
      "stateMutability": "view",
      "type": "function"
    },
    {
      "constant": true,
      "inputs": [],
      "name": "propertyIndex",
      "outputs": [
        {
          "name": "",
          "type": "uint256"
        }
      ],
      "payable": false,
      "stateMutability": "view",
      "type": "function"
    },
    {
      "inputs": [],
      "payable": false,
      "stateMutability": "nonpayable",
      "type": "constructor"
    },
    {
      "constant": false,
      "inputs": [
        {
          "name": "_addr",
          "type": "address"
        }
      ],
      "name": "addAdmins",
      "outputs": [],
      "payable": false,
      "stateMutability": "nonpayable",
      "type": "function"
    },
    {
      "constant": false,
      "inputs": [
        {
          "name": "_name",
          "type": "string"
        },
        {
          "name": "_addr",
          "type": "string"
        },
        {
          "name": "_desc",
          "type": "string"
        },
        {
          "name": "_price",
          "type": "uint256"
        },
        {
          "name": "_owners",
          "type": "address[]"
        },
        {
          "name": "_logs",
          "type": "bytes32[]"
        },
        {
          "name": "_geoLoc",
          "type": "string"
        }
      ],
      "name": "addProperty",
      "outputs": [],
      "payable": false,
      "stateMutability": "nonpayable",
      "type": "function"
    },
    {
      "constant": false,
      "inputs": [
        {
          "name": "index",
          "type": "uint256"
        },
        {
          "name": "_name",
          "type": "string"
        },
        {
          "name": "_addr",
          "type": "string"
        },
        {
          "name": "_desc",
          "type": "string"
        },
        {
          "name": "_price",
          "type": "uint256"
        },
        {
          "name": "_owners",
          "type": "address[]"
        },
        {
          "name": "_logs",
          "type": "bytes32[]"
        },
        {
          "name": "_geoLoc",
          "type": "string"
        }
      ],
      "name": "updateProperty",
      "outputs": [],
      "payable": false,
      "stateMutability": "nonpayable",
      "type": "function"
    },
    {
      "constant": true,
      "inputs": [
        {
          "name": "_index",
          "type": "uint256"
        }
      ],
      "name": "getLogs",
      "outputs": [
        {
          "name": "",
          "type": "bytes32[]"
        }
      ],
      "payable": false,
      "stateMutability": "view",
      "type": "function"
    },
    {
      "constant": false,
      "inputs": [
        {
          "name": "proIndex",
          "type": "uint256"
        },
        {
          "name": "index",
          "type": "uint256"
        }
      ],
      "name": "removeLogs",
      "outputs": [],
      "payable": false,
      "stateMutability": "nonpayable",
      "type": "function"
    },
    {
      "constant": false,
      "inputs": [
        {
          "name": "_index",
          "type": "uint256"
        },
        {
          "name": "text",
          "type": "bytes32"
        }
      ],
      "name": "wrightLogs",
      "outputs": [],
      "payable": false,
      "stateMutability": "nonpayable",
      "type": "function"
    },
    {
      "constant": true,
      "inputs": [
        {
          "name": "_index",
          "type": "uint256"
        }
      ],
      "name": "getOwners",
      "outputs": [
        {
          "name": "",
          "type": "address[]"
        }
      ],
      "payable": false,
      "stateMutability": "view",
      "type": "function"
    },
    {
      "constant": false,
      "inputs": [
        {
          "name": "proIndex",
          "type": "uint256"
        },
        {
          "name": "index",
          "type": "uint256"
        }
      ],
      "name": "removeOwnership",
      "outputs": [],
      "payable": false,
      "stateMutability": "nonpayable",
      "type": "function"
    },
    {
      "constant": false,
      "inputs": [
        {
          "name": "newOwner",
          "type": "address"
        },
        {
          "name": "index",
          "type": "uint256"
        }
      ],
      "name": "addOwnership",
      "outputs": [],
      "payable": false,
      "stateMutability": "nonpayable",
      "type": "function"
    },
    {
      "constant": false,
      "inputs": [
        {
          "name": "newOwner",
          "type": "address[]"
        },
        {
          "name": "_index",
          "type": "uint256"
        },
        {
          "name": "mesz",
          "type": "bytes32"
        }
      ],
      "name": "OWN",
      "outputs": [],
      "payable": false,
      "stateMutability": "nonpayable",
      "type": "function"
    },
    {
      "constant": false,
      "inputs": [
        {
          "name": "_index",
          "type": "uint256"
        },
        {
          "name": "mesz",
          "type": "bytes32"
        }
      ],
      "name": "RECORDLOGS",
      "outputs": [],
      "payable": false,
      "stateMutability": "nonpayable",
      "type": "function"
    },
    {
      "constant": false,
      "inputs": [
        {
          "name": "_addr",
          "type": "address"
        },
        {
          "name": "_index",
          "type": "uint256"
        },
        {
          "name": "mesz",
          "type": "bytes32"
        }
      ],
      "name": "CHANGE_CREATOR",
      "outputs": [],
      "payable": false,
      "stateMutability": "nonpayable",
      "type": "function"
    },
    {
      "constant": false,
      "inputs": [
        {
          "name": "_index",
          "type": "uint256"
        },
        {
          "name": "_geo",
          "type": "string"
        },
        {
          "name": "mesz",
          "type": "bytes32"
        }
      ],
      "name": "GEOTAG",
      "outputs": [],
      "payable": false,
      "stateMutability": "nonpayable",
      "type": "function"
    }
  ],
  "bytecode": "0x60806040526040805190810160405280600581526020017f302e302e310000000000000000000000000000000000000000000000000000008152506004908051906020019062000051929190620000fe565b503480156200005f57600080fd5b5033600260006101000a81548173ffffffffffffffffffffffffffffffffffffffff021916908373ffffffffffffffffffffffffffffffffffffffff16021790555060018060003373ffffffffffffffffffffffffffffffffffffffff1673ffffffffffffffffffffffffffffffffffffffff16815260200190815260200160002060006101000a81548160ff021916908315150217905550620001ad565b828054600181600116156101000203166002900490600052602060002090601f016020900481019282601f106200014157805160ff191683800117855562000172565b8280016001018555821562000172579182015b828111156200017157825182559160200191906001019062000154565b5b50905062000181919062000185565b5090565b620001aa91905b80821115620001a65760008160009055506001016200018c565b5090565b90565b6120d780620001bd6000396000f3006080604052600436106100fc576000357c0100000000000000000000000000000000000000000000000000000000900463ffffffff1680631124c05a14610101578063429b62e51461018357806354fd4d50146101de5780636ac148471461026e578063784a08eb146104a05780637ad8a260146104db5780637c3a00f0146105595780638da5cb5b1461072e578063e1556c7514610785578063e304f6ee146107bc578063e41b42f7146107ff578063e5f78a331461085a578063ee4525d5146108db578063f101cf381461095d578063f2b843cb146109aa578063f56720b5146109e5578063f6f1980014610a10578063fba0650214610a47575b600080fd5b34801561010d57600080fd5b5061012c60048036038101908080359060200190929190505050610c12565b6040518080602001828103825283818151815260200191508051906020019060200280838360005b8381101561016f578082015181840152602081019050610154565b505050509050019250505060405180910390f35b34801561018f57600080fd5b506101c4600480360381019080803573ffffffffffffffffffffffffffffffffffffffff169060200190929190505050610c83565b604051808215151515815260200191505060405180910390f35b3480156101ea57600080fd5b506101f3610ca3565b6040518080602001828103825283818151815260200191508051906020019080838360005b83811015610233578082015181840152602081019050610218565b50505050905090810190601f1680156102605780820380516001836020036101000a031916815260200191505b509250505060405180910390f35b34801561027a57600080fd5b5061029960048036038101908080359060200190929190505050610d41565b604051808981526020018873ffffffffffffffffffffffffffffffffffffffff1673ffffffffffffffffffffffffffffffffffffffff1681526020018060200180602001806020018781526020018060200186815260200185810385528b818151815260200191508051906020019080838360005b8381101561032957808201518184015260208101905061030e565b50505050905090810190601f1680156103565780820380516001836020036101000a031916815260200191505b5085810384528a818151815260200191508051906020019080838360005b8381101561038f578082015181840152602081019050610374565b50505050905090810190601f1680156103bc5780820380516001836020036101000a031916815260200191505b50858103835289818151815260200191508051906020019080838360005b838110156103f55780820151818401526020810190506103da565b50505050905090810190601f1680156104225780820380516001836020036101000a031916815260200191505b50858103825287818151815260200191508051906020019080838360005b8381101561045b578082015181840152602081019050610440565b50505050905090810190601f1680156104885780820380516001836020036101000a031916815260200191505b509c5050505050505050505050505060405180910390f35b3480156104ac57600080fd5b506104d9600480360381019080803590602001909291908035600019169060200190929190505050611009565b005b3480156104e757600080fd5b50610557600480360381019080803590602001908201803590602001908080602002602001604051908101604052809392919081815260200183836020028082843782019150505050505091929192908035906020019092919080356000191690602001909291905050506110aa565b005b34801561056557600080fd5b5061072c60048036038101908080359060200190929190803590602001908201803590602001908080601f0160208091040260200160405190810160405280939291908181526020018383808284378201915050505050509192919290803590602001908201803590602001908080601f0160208091040260200160405190810160405280939291908181526020018383808284378201915050505050509192919290803590602001908201803590602001908080601f0160208091040260200160405190810160405280939291908181526020018383808284378201915050505050509192919290803590602001909291908035906020019082018035906020019080806020026020016040519081016040528093929190818152602001838360200280828437820191505050505050919291929080359060200190820180359060200190808060200260200160405190810160405280939291908181526020018383602002808284378201915050505050509192919290803590602001908201803590602001908080601f016020809104026020016040519081016040528093929190818152602001838380828437820191505050505050919291929050505061121f565b005b34801561073a57600080fd5b506107436113a8565b604051808273ffffffffffffffffffffffffffffffffffffffff1673ffffffffffffffffffffffffffffffffffffffff16815260200191505060405180910390f35b34801561079157600080fd5b506107ba60048036038101908080359060200190929190803590602001909291905050506113ce565b005b3480156107c857600080fd5b506107fd600480360381019080803573ffffffffffffffffffffffffffffffffffffffff1690602001909291905050506115d5565b005b34801561080b57600080fd5b50610858600480360381019080803573ffffffffffffffffffffffffffffffffffffffff16906020019092919080359060200190929190803560001916906020019092919050505061168b565b005b34801561086657600080fd5b506108d960048036038101908080359060200190929190803590602001908201803590602001908080601f01602080910402602001604051908101604052809392919081815260200183838082843782019150505050505091929192908035600019169060200190929190505050611731565b005b3480156108e757600080fd5b50610906600480360381019080803590602001909291905050506117ad565b6040518080602001828103825283818151815260200191508051906020019060200280838360005b8381101561094957808201518184015260208101905061092e565b505050509050019250505060405180910390f35b34801561096957600080fd5b506109a8600480360381019080803573ffffffffffffffffffffffffffffffffffffffff16906020019092919080359060200190929190505050611850565b005b3480156109b657600080fd5b506109e3600480360381019080803590602001909291908035600019169060200190929190505050611925565b005b3480156109f157600080fd5b506109fa611976565b6040518082815260200191505060405180910390f35b348015610a1c57600080fd5b50610a45600480360381019080803590602001909291908035906020019092919050505061197c565b005b348015610a5357600080fd5b50610c10600480360381019080803590602001908201803590602001908080601f0160208091040260200160405190810160405280939291908181526020018383808284378201915050505050509192919290803590602001908201803590602001908080601f0160208091040260200160405190810160405280939291908181526020018383808284378201915050505050509192919290803590602001908201803590602001908080601f0160208091040260200160405190810160405280939291908181526020018383808284378201915050505050509192919290803590602001909291908035906020019082018035906020019080806020026020016040519081016040528093929190818152602001838360200280828437820191505050505050919291929080359060200190820180359060200190808060200260200160405190810160405280939291908181526020018383602002808284378201915050505050509192919290803590602001908201803590602001908080601f0160208091040260200160405190810160405280939291908181526020018383808284378201915050505050509192919290505050611b0e565b005b6060600080838152602001908152602001600020600701805480602002602001604051908101604052809291908181526020018280548015610c7757602002820191906000526020600020905b81546000191681526020019060010190808311610c5f575b50505050509050919050565b60016020528060005260406000206000915054906101000a900460ff1681565b60048054600181600116156101000203166002900480601f016020809104026020016040519081016040528092919081815260200182805460018160011615610100020316600290048015610d395780601f10610d0e57610100808354040283529160200191610d39565b820191906000526020600020905b815481529060010190602001808311610d1c57829003601f168201915b505050505081565b60006020528060005260406000206000915090508060000154908060010160009054906101000a900473ffffffffffffffffffffffffffffffffffffffff1690806002018054600181600116156101000203166002900480601f016020809104026020016040519081016040528092919081815260200182805460018160011615610100020316600290048015610e195780601f10610dee57610100808354040283529160200191610e19565b820191906000526020600020905b815481529060010190602001808311610dfc57829003601f168201915b505050505090806003018054600181600116156101000203166002900480601f016020809104026020016040519081016040528092919081815260200182805460018160011615610100020316600290048015610eb75780601f10610e8c57610100808354040283529160200191610eb7565b820191906000526020600020905b815481529060010190602001808311610e9a57829003601f168201915b505050505090806004018054600181600116156101000203166002900480601f016020809104026020016040519081016040528092919081815260200182805460018160011615610100020316600290048015610f555780601f10610f2a57610100808354040283529160200191610f55565b820191906000526020600020905b815481529060010190602001808311610f3857829003601f168201915b505050505090806005015490806008018054600181600116156101000203166002900480601f016020809104026020016040519081016040528092919081815260200182805460018160011615610100020316600290048015610ff95780601f10610fce57610100808354040283529160200191610ff9565b820191906000526020600020905b815481529060010190602001808311610fdc57829003601f168201915b5050505050908060090154905088565b600160003373ffffffffffffffffffffffffffffffffffffffff1673ffffffffffffffffffffffffffffffffffffffff16815260200190815260200160002060009054906101000a900460ff16151561106157600080fd5b6000808381526020019081526020016000206007018190806001815401808255809150509060018203906000526020600020016000909192909190915090600019169055505050565b600080600091505b6000808581526020019081526020016000206006018054905082101561112e57600080858152602001908152602001600020600601828154811015156110f457fe5b9060005260206000200160006101000a81549073ffffffffffffffffffffffffffffffffffffffff021916905581806001019250506110b2565b600090505b84518110156111cb57848181518110151561114a57fe5b906020019060200201516000808681526020019081526020016000206006018281548110151561117657fe5b9060005260206000200160006101000a81548173ffffffffffffffffffffffffffffffffffffffff021916908373ffffffffffffffffffffffffffffffffffffffff1602179055508080600101915050611133565b826000808681526020019081526020016000206007016000808781526020019081526020016000206007018054905081548110151561120657fe5b9060005260206000200181600019169055505050505050565b600160003373ffffffffffffffffffffffffffffffffffffffff1673ffffffffffffffffffffffffffffffffffffffff16815260200190815260200160002060009054906101000a900460ff16151561127757600080fd5b600354881115151561128857600080fd5b866000808a815260200190815260200160002060020190805190602001906112b1929190611d0c565b50856000808a815260200190815260200160002060030190805190602001906112db929190611d0c565b50846000808a81526020019081526020016000206004019080519060200190611305929190611d0c565b50836000808a815260200190815260200160002060050181905550826000808a81526020019081526020016000206006019080519060200190611349929190611d8c565b50816000808a81526020019081526020016000206007019080519060200190611373929190611e16565b50806000808a8152602001908152602001600020600801908051906020019061139d929190611d0c565b505050505050505050565b600260009054906101000a900473ffffffffffffffffffffffffffffffffffffffff1681565b6000600160003373ffffffffffffffffffffffffffffffffffffffff1673ffffffffffffffffffffffffffffffffffffffff16815260200190815260200160002060009054906101000a900460ff16151561142857600080fd5b600080848152602001908152602001600020600601805490508210151561144e576115d0565b8190505b6001600080858152602001908152602001600020600601805490500381101561153c576000808481526020019081526020016000206006016001820181548110151561149a57fe5b9060005260206000200160009054906101000a900473ffffffffffffffffffffffffffffffffffffffff16600080858152602001908152602001600020600601828154811015156114e757fe5b9060005260206000200160006101000a81548173ffffffffffffffffffffffffffffffffffffffff021916908373ffffffffffffffffffffffffffffffffffffffff1602179055508080600101915050611452565b6000808481526020019081526020016000206006016001600080868152602001908152602001600020600601805490500381548110151561157957fe5b9060005260206000200160006101000a81549073ffffffffffffffffffffffffffffffffffffffff02191690556000808481526020019081526020016000206006018054809190600190036115ce9190611e69565b505b505050565b600260009054906101000a900473ffffffffffffffffffffffffffffffffffffffff1673ffffffffffffffffffffffffffffffffffffffff163373ffffffffffffffffffffffffffffffffffffffff1614151561163157600080fd5b60018060008373ffffffffffffffffffffffffffffffffffffffff1673ffffffffffffffffffffffffffffffffffffffff16815260200190815260200160002060006101000a81548160ff02191690831515021790555050565b8260008084815260200190815260200160002060010160006101000a81548173ffffffffffffffffffffffffffffffffffffffff021916908373ffffffffffffffffffffffffffffffffffffffff160217905550806000808481526020019081526020016000206007016000808581526020019081526020016000206007018054905081548110151561171a57fe5b906000526020600020018160001916905550505050565b81600080858152602001908152602001600020600801908051906020019061175a929190611d0c565b50806000808581526020019081526020016000206007016000808681526020019081526020016000206007018054905081548110151561179657fe5b906000526020600020018160001916905550505050565b606060008083815260200190815260200160002060060180548060200260200160405190810160405280929190818152602001828054801561184457602002820191906000526020600020905b8160009054906101000a900473ffffffffffffffffffffffffffffffffffffffff1673ffffffffffffffffffffffffffffffffffffffff16815260200190600101908083116117fa575b50505050509050919050565b600160003373ffffffffffffffffffffffffffffffffffffffff1673ffffffffffffffffffffffffffffffffffffffff16815260200190815260200160002060009054906101000a900460ff1615156118a857600080fd5b6000808281526020019081526020016000206006018290806001815401808255809150509060018203906000526020600020016000909192909190916101000a81548173ffffffffffffffffffffffffffffffffffffffff021916908373ffffffffffffffffffffffffffffffffffffffff160217905550505050565b806000808481526020019081526020016000206007016000808581526020019081526020016000206007018054905081548110151561196057fe5b9060005260206000200181600019169055505050565b60035481565b6000600160003373ffffffffffffffffffffffffffffffffffffffff1673ffffffffffffffffffffffffffffffffffffffff16815260200190815260200160002060009054906101000a900460ff1615156119d657600080fd5b60008084815260200190815260200160002060070180549050821015156119fc57611b09565b8190505b60016000808581526020019081526020016000206007018054905003811015611a945760008084815260200190815260200160002060070160018201815481101515611a4857fe5b906000526020600020015460008085815260200190815260200160002060070182815481101515611a7557fe5b9060005260206000200181600019169055508080600101915050611a00565b60008084815260200190815260200160002060070160016000808681526020019081526020016000206007018054905003815481101515611ad157fe5b9060005260206000200160009055600080848152602001908152602001600020600701805480919060019003611b079190611e95565b505b505050565b600160003373ffffffffffffffffffffffffffffffffffffffff1673ffffffffffffffffffffffffffffffffffffffff16815260200190815260200160002060009054906101000a900460ff161515611b6657600080fd5b600360008154809291906001019190505550610140604051908101604052804281526020013373ffffffffffffffffffffffffffffffffffffffff16815260200188815260200187815260200186815260200185815260200184815260200183815260200182815260200160035481525060008060035481526020019081526020016000206000820151816000015560208201518160010160006101000a81548173ffffffffffffffffffffffffffffffffffffffff021916908373ffffffffffffffffffffffffffffffffffffffff1602179055506040820151816002019080519060200190611c58929190611ec1565b506060820151816003019080519060200190611c75929190611ec1565b506080820151816004019080519060200190611c92929190611ec1565b5060a0820151816005015560c0820151816006019080519060200190611cb9929190611f41565b5060e0820151816007019080519060200190611cd6929190611fcb565b50610100820151816008019080519060200190611cf4929190611ec1565b50610120820151816009015590505050505050505050565b828054600181600116156101000203166002900490600052602060002090601f016020900481019282601f10611d4d57805160ff1916838001178555611d7b565b82800160010185558215611d7b579182015b82811115611d7a578251825591602001919060010190611d5f565b5b509050611d88919061201e565b5090565b828054828255906000526020600020908101928215611e05579160200282015b82811115611e045782518260006101000a81548173ffffffffffffffffffffffffffffffffffffffff021916908373ffffffffffffffffffffffffffffffffffffffff16021790555091602001919060010190611dac565b5b509050611e129190612043565b5090565b828054828255906000526020600020908101928215611e58579160200282015b82811115611e57578251829060001916905591602001919060010190611e36565b5b509050611e659190612086565b5090565b815481835581811115611e9057818360005260206000209182019101611e8f919061201e565b5b505050565b815481835581811115611ebc57818360005260206000209182019101611ebb9190612086565b5b505050565b828054600181600116156101000203166002900490600052602060002090601f016020900481019282601f10611f0257805160ff1916838001178555611f30565b82800160010185558215611f30579182015b82811115611f2f578251825591602001919060010190611f14565b5b509050611f3d919061201e565b5090565b828054828255906000526020600020908101928215611fba579160200282015b82811115611fb95782518260006101000a81548173ffffffffffffffffffffffffffffffffffffffff021916908373ffffffffffffffffffffffffffffffffffffffff16021790555091602001919060010190611f61565b5b509050611fc79190612043565b5090565b82805482825590600052602060002090810192821561200d579160200282015b8281111561200c578251829060001916905591602001919060010190611feb565b5b50905061201a9190612086565b5090565b61204091905b8082111561203c576000816000905550600101612024565b5090565b90565b61208391905b8082111561207f57600081816101000a81549073ffffffffffffffffffffffffffffffffffffffff021916905550600101612049565b5090565b90565b6120a891905b808211156120a457600081600090555060010161208c565b5090565b905600a165627a7a72305820666aeb3a9fc57a3be076d800b35e1369bad4f67d8a37ebf75b144617b9597ecd0029",
  "source": "pragma solidity ^0.4.23;\n\ncontract Property {\n\n  //enum PropertyAction {OWN,COOWN,BUY,INHERIT,DISPUTE,PAYPROPERTYTAX,PAYELECBILL,PAYWATERBILL,CHANGE,GEOTAG}\n\n  struct PropertyProp{\n    uint256 created;\n    address creator;\n    string name;\n    string addr;\n    string desc;\n    uint256 price;\n    address[] owners;\n    bytes32[] logs;\n    string getLoc;\n    uint256 index;\n  }\n\n  //struct Actions{\n  //  PropertyAction actions;\n  //}\n\n  mapping(uint256 => PropertyProp) public propertys;\n  //mapping(uint256 => address[]) public modifiers;\n  mapping(address => bool) public admins;\n\n  address public owner;\n  uint256 public propertyIndex;\n  string public version = \"0.0.1\";\n\n  modifier isOwner() {\n    require (msg.sender == owner);\n    _;\n  }\n\n  modifier isAdmin() {\n    require(admins[msg.sender]);\n    _;\n  }\n\n  constructor() public {\n    owner = msg.sender;\n    admins[msg.sender] = true;\n  }\n\n  function addAdmins(address _addr) public isOwner {\n    admins[_addr] = true;\n  }\n\n  function addProperty(string _name,\n    string _addr,\n    string _desc,\n    uint256 _price,\n    address[] _owners,\n    bytes32[] _logs,\n    string _geoLoc) public isAdmin {\n\n    propertyIndex++;\n    propertys[propertyIndex] = PropertyProp(\n      now, \n      msg.sender, \n      _name, \n      _addr, \n      _desc, \n      _price, \n      _owners,\n      _logs,\n      _geoLoc,\n      propertyIndex);\n\n  }\n\n  function updateProperty(uint256 index,\n    string _name,\n    string _addr,\n    string _desc,\n    uint256 _price,\n    address[] _owners,\n    bytes32[] _logs,\n    string _geoLoc) public isAdmin {\n\n      require(index <= propertyIndex);\n\n      propertys[index].name = _name;\n      propertys[index].addr = _addr;\n      propertys[index].desc = _desc;\n      propertys[index].price = _price;\n      propertys[index].owners = _owners;\n      propertys[index].logs = _logs;\n      propertys[index].getLoc = _geoLoc;\n  }\n\n  function getLogs(uint256 _index) public view returns(bytes32[]){\n    return propertys[_index].logs;\n  }\n\n  function removeLogs(uint256 proIndex, uint index) public isAdmin () {\n    if (index >= propertys[proIndex].logs.length) return;\n\n    for (uint i = index; i<propertys[proIndex].logs.length-1; i++){\n      propertys[proIndex].logs[i] = propertys[proIndex].logs[i+1];\n    }\n    delete propertys[proIndex].logs[propertys[proIndex].logs.length-1];\n    propertys[proIndex].logs.length--;\n  }\n\n  function wrightLogs(uint256 _index, bytes32 text) public isAdmin (){\n    propertys[_index].logs.push(text);\n  }\n\n\n\n  function getOwners(uint256 _index) public view returns(address[]){\n    return propertys[_index].owners;\n  }\n\n  function removeOwnership(uint256 proIndex, uint index) public isAdmin {\n    if (index >= propertys[proIndex].owners.length) return;\n\n    for (uint i = index; i<propertys[proIndex].owners.length-1; i++){\n      propertys[proIndex].owners[i] = propertys[proIndex].owners[i+1];\n    }\n    delete propertys[proIndex].owners[propertys[proIndex].owners.length-1];\n    propertys[proIndex].owners.length--;\n  }\n\n  function addOwnership(address newOwner, uint256 index) public isAdmin{\n    propertys[index].owners.push(newOwner);\n  }\n\n  // CHANGES\n\n  function OWN(address[] newOwner, uint256 _index, bytes32 mesz) public {\n    for (uint i = 0; i<propertys[_index].owners.length; i++){\n      delete propertys[_index].owners[i];\n    }\n    for(uint j = 0; j<newOwner.length; j++){\n      propertys[_index].owners[j] = newOwner[j];\n    }\n    propertys[_index].logs[propertys[_index].logs.length] = mesz;\n  }\n\n  function RECORDLOGS(uint256 _index, bytes32 mesz) public {\n    propertys[_index].logs[propertys[_index].logs.length] = mesz;\n  }\n\n  function CHANGE_CREATOR(address _addr, uint256 _index, bytes32 mesz) public {\n    propertys[_index].creator = _addr;\n    propertys[_index].logs[propertys[_index].logs.length] = mesz;\n  }\n\n  function GEOTAG(uint256 _index, string _geo, bytes32 mesz) public {\n    propertys[_index].getLoc = _geo;\n    propertys[_index].logs[propertys[_index].logs.length] = mesz;\n  }\n\n}\n",
  "sourcePath": "C:\\xampp\\htdocs\\BLOCKCHAIN\\Property-Ethereum-POC\\contracts\\Property.sol",
  "compiler": {
    "name": "solc",
    "version": "0.4.24+commit.e67f0147.Emscripten.clang"
  },
  "schemaVersion": "2.0.1",
  "updatedAt": "2018-07-07T14:38:37.766Z"
}